:100000000C942A000C9447000C9447000C94470071
:100010000C9447000C9447000C9447000C94470044
:100020000C9447000C9447000C9447000C94470034
:100030000C9447000C9447000C9447000C94470024
:100040000C9447000C9447000C9447000C94470014
:100050000C94470011241FBECFE5D4E0DEBFCDBF16
:1000600010E0A0E6B0E0ECE8F3E002C005900D92ED
:10007000A036B107D9F710E0A0E6B0E001C01D92AC
:10008000A036B107E1F70E94A9010C94C4010C94B9
:10009000000088E085BB8FE39DE0A3E081509040A5
:1000A000A040E1F700C0000015BA8FE39DE0A3E097
:1000B00081509040A040E1F700C000008CE385BB78
:1000C0008FE39DE0A3E081509040A040E1F700C0A5
:1000D000000080E885BB8FE39DE0A3E08150904065
:1000E000A040E1F700C0000088E885BB8FE39DE0F9
:1000F000A3E081509040A040E1F700C000008CE4F4
:1001000085BB8FE39DE0A3E081509040A040E1F7E4
:1001100000C0000088E285BB8FE39DE0A3E0815032
:100120009040A040E1F700C0000082E285BB8FE371
:100130009DE0A3E081509040A040E1F700C00000A6
:100140008CE785BB8FE39DE0A3E081509040A04009
:10015000E1F700C0000080E185BB8FE39DE0A3E0F4
:1001600081509040A040E1F700C0000008958CE469
:1001700085BB8FE39DE0A3E081509040A040E1F774
:1001800000C0000088E285BB8FE39DE0A3E08150C2
:100190009040A040E1F700C0000082E285BB8FE301
:1001A0009DE0A3E081509040A040E1F700C0000036
:1001B0008CE785BB8FE39DE0A3E081509040A04099
:1001C000E1F700C0000080E185BB089582E082BBBA
:1001D00089E888BB0E94B70083E082BB89E088BBC6
:1001E0000895CF9384E082BBC9E4C8BB0E94B700E6
:1001F00088E082BBC8BBCF910895CF93C2E0C2BB59
:100200008AE488BB0E94B700C2BB8CE488BBCF9154
:100210000895CF93C2E0C2BB81E588BB0E94B700BE
:10022000C2BB81E688BBCF91089582E082BB89E49E
:1002300088BB8EEF85BB89B38370833041F40E9405
:10024000E6000E94490082E082BB89E488BB89B352
:100250008C708C3041F40E94F1000E94490082E0D1
:1002600082BB89E488BB89B38073803341F40E94E8
:10027000FD000E94490082E082BB89E488BB89B30B
:10028000807C803C41F40E9409010E94490082E088
:1002900082BB89E488BB089582E082BB89E488BB85
:1002A0000E94E6000E94490089B38370833061F0A8
:1002B00089B38C708C3041F089B38073803321F026
:1002C00089B3807C803C11F40E9415010E94F100EA
:1002D0000E94490089B38370833061F089B38C70C8
:1002E0008C3041F089B38073803321F089B3807CF6
:1002F000803C11F40E9415010E94FD000E944900FB
:1003000089B38370833061F089B38C708C3041F095
:1003100089B38073803321F089B3807C803C11F4F1
:100320000E9415010E9409010E94490089B383704F
:10033000833061F089B38C708C3041F089B3807365
:10034000803321F089B3807C803C11F40E94150138
:1003500008958FEF84BB1ABA87BB81BB89B38370C2
:10036000833061F089B38C708C3041F089B3807335
:10037000803321F089B3807C803C19F40E94150100
:0C038000EDCF0E944C01EACFF894FFCFB3
:00000001FF
